{
  "_format": "hh-sol-artifact-1",
  "contractName": "NFTMarket",
  "sourceName": "contracts/NFTMarket.sol",
  "abi": [
    {
      "inputs": [],
      "stateMutability": "nonpayable",
      "type": "constructor"
    },
    {
      "anonymous": false,
      "inputs": [
        {
          "indexed": true,
          "internalType": "address",
          "name": "owner",
          "type": "address"
        },
        {
          "indexed": true,
          "internalType": "address",
          "name": "approved",
          "type": "address"
        },
        {
          "indexed": true,
          "internalType": "uint256",
          "name": "tokenId",
          "type": "uint256"
        }
      ],
      "name": "Approval",
      "type": "event"
    },
    {
      "anonymous": false,
      "inputs": [
        {
          "indexed": true,
          "internalType": "address",
          "name": "owner",
          "type": "address"
        },
        {
          "indexed": true,
          "internalType": "address",
          "name": "operator",
          "type": "address"
        },
        {
          "indexed": false,
          "internalType": "bool",
          "name": "approved",
          "type": "bool"
        }
      ],
      "name": "ApprovalForAll",
      "type": "event"
    },
    {
      "anonymous": false,
      "inputs": [
        {
          "indexed": false,
          "internalType": "uint256",
          "name": "tokenID",
          "type": "uint256"
        },
        {
          "indexed": false,
          "internalType": "address",
          "name": "from",
          "type": "address"
        },
        {
          "indexed": false,
          "internalType": "address",
          "name": "to",
          "type": "address"
        },
        {
          "indexed": false,
          "internalType": "string",
          "name": "tokenURI",
          "type": "string"
        },
        {
          "indexed": false,
          "internalType": "uint256",
          "name": "price",
          "type": "uint256"
        }
      ],
      "name": "NFTTransfer",
      "type": "event"
    },
    {
      "anonymous": false,
      "inputs": [
        {
          "indexed": true,
          "internalType": "address",
          "name": "previousOwner",
          "type": "address"
        },
        {
          "indexed": true,
          "internalType": "address",
          "name": "newOwner",
          "type": "address"
        }
      ],
      "name": "OwnershipTransferred",
      "type": "event"
    },
    {
      "anonymous": false,
      "inputs": [
        {
          "indexed": true,
          "internalType": "address",
          "name": "from",
          "type": "address"
        },
        {
          "indexed": true,
          "internalType": "address",
          "name": "to",
          "type": "address"
        },
        {
          "indexed": true,
          "internalType": "uint256",
          "name": "tokenId",
          "type": "uint256"
        }
      ],
      "name": "Transfer",
      "type": "event"
    },
    {
      "inputs": [
        {
          "internalType": "address",
          "name": "to",
          "type": "address"
        },
        {
          "internalType": "uint256",
          "name": "tokenId",
          "type": "uint256"
        }
      ],
      "name": "approve",
      "outputs": [],
      "stateMutability": "nonpayable",
      "type": "function"
    },
    {
      "inputs": [
        {
          "internalType": "address",
          "name": "owner",
          "type": "address"
        }
      ],
      "name": "balanceOf",
      "outputs": [
        {
          "internalType": "uint256",
          "name": "",
          "type": "uint256"
        }
      ],
      "stateMutability": "view",
      "type": "function"
    },
    {
      "inputs": [
        {
          "internalType": "uint256",
          "name": "tokenID",
          "type": "uint256"
        }
      ],
      "name": "buyNFT",
      "outputs": [],
      "stateMutability": "payable",
      "type": "function"
    },
    {
      "inputs": [
        {
          "internalType": "uint256",
          "name": "tokenID",
          "type": "uint256"
        }
      ],
      "name": "cancelListing",
      "outputs": [],
      "stateMutability": "nonpayable",
      "type": "function"
    },
    {
      "inputs": [
        {
          "internalType": "string",
          "name": "tokenURI",
          "type": "string"
        }
      ],
      "name": "createNFT",
      "outputs": [],
      "stateMutability": "nonpayable",
      "type": "function"
    },
    {
      "inputs": [
        {
          "internalType": "uint256",
          "name": "tokenID",
          "type": "uint256"
        }
      ],
      "name": "fetchNFTowner",
      "outputs": [
        {
          "internalType": "address",
          "name": "",
          "type": "address"
        }
      ],
      "stateMutability": "view",
      "type": "function"
    },
    {
      "inputs": [
        {
          "internalType": "uint256",
          "name": "tokenId",
          "type": "uint256"
        }
      ],
      "name": "getApproved",
      "outputs": [
        {
          "internalType": "address",
          "name": "",
          "type": "address"
        }
      ],
      "stateMutability": "view",
      "type": "function"
    },
    {
      "inputs": [],
      "name": "getCallerAddress",
      "outputs": [
        {
          "internalType": "address",
          "name": "",
          "type": "address"
        }
      ],
      "stateMutability": "view",
      "type": "function"
    },
    {
      "inputs": [],
      "name": "getCurrentID",
      "outputs": [
        {
          "internalType": "uint256",
          "name": "",
          "type": "uint256"
        }
      ],
      "stateMutability": "view",
      "type": "function"
    },
    {
      "inputs": [
        {
          "internalType": "uint256",
          "name": "tokenID",
          "type": "uint256"
        }
      ],
      "name": "getListingprice",
      "outputs": [
        {
          "internalType": "uint256",
          "name": "",
          "type": "uint256"
        }
      ],
      "stateMutability": "view",
      "type": "function"
    },
    {
      "inputs": [
        {
          "internalType": "address",
          "name": "owner",
          "type": "address"
        },
        {
          "internalType": "address",
          "name": "operator",
          "type": "address"
        }
      ],
      "name": "isApprovedForAll",
      "outputs": [
        {
          "internalType": "bool",
          "name": "",
          "type": "bool"
        }
      ],
      "stateMutability": "view",
      "type": "function"
    },
    {
      "inputs": [
        {
          "internalType": "uint256",
          "name": "tokenID",
          "type": "uint256"
        },
        {
          "internalType": "uint256",
          "name": "price",
          "type": "uint256"
        }
      ],
      "name": "listNFT",
      "outputs": [],
      "stateMutability": "nonpayable",
      "type": "function"
    },
    {
      "inputs": [
        {
          "internalType": "uint256",
          "name": "tokenID",
          "type": "uint256"
        }
      ],
      "name": "minteraddress",
      "outputs": [
        {
          "internalType": "address",
          "name": "",
          "type": "address"
        }
      ],
      "stateMutability": "view",
      "type": "function"
    },
    {
      "inputs": [],
      "name": "name",
      "outputs": [
        {
          "internalType": "string",
          "name": "",
          "type": "string"
        }
      ],
      "stateMutability": "view",
      "type": "function"
    },
    {
      "inputs": [],
      "name": "nftCount",
      "outputs": [
        {
          "internalType": "uint256",
          "name": "",
          "type": "uint256"
        }
      ],
      "stateMutability": "view",
      "type": "function"
    },
    {
      "inputs": [
        {
          "internalType": "uint256",
          "name": "",
          "type": "uint256"
        }
      ],
      "name": "originalOwner",
      "outputs": [
        {
          "internalType": "address",
          "name": "",
          "type": "address"
        }
      ],
      "stateMutability": "view",
      "type": "function"
    },
    {
      "inputs": [],
      "name": "owner",
      "outputs": [
        {
          "internalType": "address",
          "name": "",
          "type": "address"
        }
      ],
      "stateMutability": "view",
      "type": "function"
    },
    {
      "inputs": [
        {
          "internalType": "uint256",
          "name": "tokenId",
          "type": "uint256"
        }
      ],
      "name": "ownerOf",
      "outputs": [
        {
          "internalType": "address",
          "name": "",
          "type": "address"
        }
      ],
      "stateMutability": "view",
      "type": "function"
    },
    {
      "inputs": [],
      "name": "renounceOwnership",
      "outputs": [],
      "stateMutability": "nonpayable",
      "type": "function"
    },
    {
      "inputs": [
        {
          "internalType": "address",
          "name": "from",
          "type": "address"
        },
        {
          "internalType": "address",
          "name": "to",
          "type": "address"
        },
        {
          "internalType": "uint256",
          "name": "tokenId",
          "type": "uint256"
        }
      ],
      "name": "safeTransferFrom",
      "outputs": [],
      "stateMutability": "nonpayable",
      "type": "function"
    },
    {
      "inputs": [
        {
          "internalType": "address",
          "name": "from",
          "type": "address"
        },
        {
          "internalType": "address",
          "name": "to",
          "type": "address"
        },
        {
          "internalType": "uint256",
          "name": "tokenId",
          "type": "uint256"
        },
        {
          "internalType": "bytes",
          "name": "data",
          "type": "bytes"
        }
      ],
      "name": "safeTransferFrom",
      "outputs": [],
      "stateMutability": "nonpayable",
      "type": "function"
    },
    {
      "inputs": [
        {
          "internalType": "address",
          "name": "operator",
          "type": "address"
        },
        {
          "internalType": "bool",
          "name": "approved",
          "type": "bool"
        }
      ],
      "name": "setApprovalForAll",
      "outputs": [],
      "stateMutability": "nonpayable",
      "type": "function"
    },
    {
      "inputs": [
        {
          "internalType": "bytes4",
          "name": "interfaceId",
          "type": "bytes4"
        }
      ],
      "name": "supportsInterface",
      "outputs": [
        {
          "internalType": "bool",
          "name": "",
          "type": "bool"
        }
      ],
      "stateMutability": "view",
      "type": "function"
    },
    {
      "inputs": [],
      "name": "symbol",
      "outputs": [
        {
          "internalType": "string",
          "name": "",
          "type": "string"
        }
      ],
      "stateMutability": "view",
      "type": "function"
    },
    {
      "inputs": [
        {
          "internalType": "uint256",
          "name": "tokenId",
          "type": "uint256"
        }
      ],
      "name": "tokenURI",
      "outputs": [
        {
          "internalType": "string",
          "name": "",
          "type": "string"
        }
      ],
      "stateMutability": "view",
      "type": "function"
    },
    {
      "inputs": [
        {
          "internalType": "address",
          "name": "from",
          "type": "address"
        },
        {
          "internalType": "address",
          "name": "to",
          "type": "address"
        },
        {
          "internalType": "uint256",
          "name": "tokenId",
          "type": "uint256"
        }
      ],
      "name": "transferFrom",
      "outputs": [],
      "stateMutability": "nonpayable",
      "type": "function"
    },
    {
      "inputs": [
        {
          "internalType": "address",
          "name": "newOwner",
          "type": "address"
        }
      ],
      "name": "transferOwnership",
      "outputs": [],
      "stateMutability": "nonpayable",
      "type": "function"
    },
    {
      "inputs": [],
      "name": "withdrawFunds",
      "outputs": [],
      "stateMutability": "nonpayable",
      "type": "function"
    }
  ],
  "bytecode": "0x608060405260006009553480156200001657600080fd5b506040518060400160405280600681526020017f4d794e46547300000000000000000000000000000000000000000000000000008152506040518060400160405280600481526020017f4d4e465400000000000000000000000000000000000000000000000000000000815250816000908162000094919062000417565b508060019081620000a6919062000417565b505050620000c9620000bd620000cf60201b60201c565b620000d760201b60201c565b620004fe565b600033905090565b6000600760009054906101000a900473ffffffffffffffffffffffffffffffffffffffff16905081600760006101000a81548173ffffffffffffffffffffffffffffffffffffffff021916908373ffffffffffffffffffffffffffffffffffffffff1602179055508173ffffffffffffffffffffffffffffffffffffffff168173ffffffffffffffffffffffffffffffffffffffff167f8be0079c531659141344cd1fd0a4f28419497f9722a3daafe3b4186f6b6457e060405160405180910390a35050565b600081519050919050565b7f4e487b7100000000000000000000000000000000000000000000000000000000600052604160045260246000fd5b7f4e487b7100000000000000000000000000000000000000000000000000000000600052602260045260246000fd5b600060028204905060018216806200021f57607f821691505b602082108103620002355762000234620001d7565b5b50919050565b60008190508160005260206000209050919050565b60006020601f8301049050919050565b600082821b905092915050565b6000600883026200029f7fffffffffffffffffffffffffffffffffffffffffffffffffffffffffffffffff8262000260565b620002ab868362000260565b95508019841693508086168417925050509392505050565b6000819050919050565b6000819050919050565b6000620002f8620002f2620002ec84620002c3565b620002cd565b620002c3565b9050919050565b6000819050919050565b6200031483620002d7565b6200032c6200032382620002ff565b8484546200026d565b825550505050565b600090565b6200034362000334565b6200035081848462000309565b505050565b5b8181101562000378576200036c60008262000339565b60018101905062000356565b5050565b601f821115620003c75762000391816200023b565b6200039c8462000250565b81016020851015620003ac578190505b620003c4620003bb8562000250565b83018262000355565b50505b505050565b600082821c905092915050565b6000620003ec60001984600802620003cc565b1980831691505092915050565b6000620004078383620003d9565b9150826002028217905092915050565b62000422826200019d565b67ffffffffffffffff8111156200043e576200043d620001a8565b5b6200044a825462000206565b620004578282856200037c565b600060209050601f8311600181146200048f57600084156200047a578287015190505b620004868582620003f9565b865550620004f6565b601f1984166200049f866200023b565b60005b82811015620004c957848901518255600182019150602085019450602081019050620004a2565b86831015620004e95784890151620004e5601f891682620003d9565b8355505b6001600288020188555050505b505050505050565b613f93806200050e6000396000f3fe6080604052600436106101b75760003560e01c80636f68b052116100ec578063b88d4fde1161008a578063e985e9c511610064578063e985e9c51461060d578063ed3425771461064a578063ef1e7df314610687578063f2fde38b146106b2576101b7565b8063b88d4fde1461057e578063c87b56dd146105a7578063da2ed03e146105e4576101b7565b80638da5cb5b116100c65780638da5cb5b146104d657806394383f141461050157806395d89b411461052a578063a22cb46514610555576101b7565b80636f68b0521461044557806370a0823114610482578063715018a6146104bf576101b7565b80632d3c28121161015957806342842e0e1161013357806342842e0e1461039857806346b3353b146103c157806351ed8288146103ec5780636352211e14610408576101b7565b80632d3c2812146102f5578063305a67a81461033257806340bb154d1461035b576101b7565b8063095ea7b311610195578063095ea7b3146102615780630af2c6ca1461028a57806323b872dd146102b557806324600fc3146102de576101b7565b806301ffc9a7146101bc57806306fdde03146101f9578063081812fc14610224575b600080fd5b3480156101c857600080fd5b506101e360048036038101906101de9190612852565b6106db565b6040516101f0919061289a565b60405180910390f35b34801561020557600080fd5b5061020e6107bd565b60405161021b9190612945565b60405180910390f35b34801561023057600080fd5b5061024b6004803603810190610246919061299d565b61084f565b6040516102589190612a0b565b60405180910390f35b34801561026d57600080fd5b5061028860048036038101906102839190612a52565b610895565b005b34801561029657600080fd5b5061029f6109ac565b6040516102ac9190612aa1565b60405180910390f35b3480156102c157600080fd5b506102dc60048036038101906102d79190612abc565b6109b2565b005b3480156102ea57600080fd5b506102f3610a12565b005b34801561030157600080fd5b5061031c6004803603810190610317919061299d565b610aac565b6040516103299190612aa1565b60405180910390f35b34801561033e57600080fd5b506103596004803603810190610354919061299d565b610acc565b005b34801561036757600080fd5b50610382600480360381019061037d919061299d565b610c14565b60405161038f9190612a0b565b60405180910390f35b3480156103a457600080fd5b506103bf60048036038101906103ba9190612abc565b610c47565b005b3480156103cd57600080fd5b506103d6610c67565b6040516103e39190612a0b565b60405180910390f35b6104066004803603810190610401919061299d565b610c6f565b005b34801561041457600080fd5b5061042f600480360381019061042a919061299d565b610ec3565b60405161043c9190612a0b565b60405180910390f35b34801561045157600080fd5b5061046c6004803603810190610467919061299d565b610f49565b6040516104799190612a0b565b60405180910390f35b34801561048e57600080fd5b506104a960048036038101906104a49190612b0f565b610f89565b6040516104b69190612aa1565b60405180910390f35b3480156104cb57600080fd5b506104d4611040565b005b3480156104e257600080fd5b506104eb611054565b6040516104f89190612a0b565b60405180910390f35b34801561050d57600080fd5b5061052860048036038101906105239190612b3c565b61107e565b005b34801561053657600080fd5b5061053f611157565b60405161054c9190612945565b60405180910390f35b34801561056157600080fd5b5061057c60048036038101906105779190612ba8565b6111e9565b005b34801561058a57600080fd5b506105a560048036038101906105a09190612d1d565b6111ff565b005b3480156105b357600080fd5b506105ce60048036038101906105c9919061299d565b611261565b6040516105db9190612945565b60405180910390f35b3480156105f057600080fd5b5061060b60048036038101906106069190612e00565b611373565b005b34801561061957600080fd5b50610634600480360381019061062f9190612e4d565b611517565b604051610641919061289a565b60405180910390f35b34801561065657600080fd5b50610671600480360381019061066c919061299d565b6115ab565b60405161067e9190612a0b565b60405180910390f35b34801561069357600080fd5b5061069c6115e8565b6040516106a99190612aa1565b60405180910390f35b3480156106be57600080fd5b506106d960048036038101906106d49190612b0f565b6115f2565b005b60007f80ac58cd000000000000000000000000000000000000000000000000000000007bffffffffffffffffffffffffffffffffffffffffffffffffffffffff1916827bffffffffffffffffffffffffffffffffffffffffffffffffffffffff191614806107a657507f5b5e139f000000000000000000000000000000000000000000000000000000007bffffffffffffffffffffffffffffffffffffffffffffffffffffffff1916827bffffffffffffffffffffffffffffffffffffffffffffffffffffffff1916145b806107b657506107b582611675565b5b9050919050565b6060600080546107cc90612ebc565b80601f01602080910402602001604051908101604052809291908181526020018280546107f890612ebc565b80156108455780601f1061081a57610100808354040283529160200191610845565b820191906000526020600020905b81548152906001019060200180831161082857829003601f168201915b5050505050905090565b600061085a826116df565b6004600083815260200190815260200160002060009054906101000a900473ffffffffffffffffffffffffffffffffffffffff169050919050565b60006108a082610ec3565b90508073ffffffffffffffffffffffffffffffffffffffff168373ffffffffffffffffffffffffffffffffffffffff1603610910576040517f08c379a000000000000000000000000000000000000000000000000000000000815260040161090790612f5f565b60405180910390fd5b8073ffffffffffffffffffffffffffffffffffffffff1661092f61172a565b73ffffffffffffffffffffffffffffffffffffffff16148061095e575061095d8161095861172a565b611517565b5b61099d576040517f08c379a000000000000000000000000000000000000000000000000000000000815260040161099490612ff1565b60405180910390fd5b6109a78383611732565b505050565b60095481565b6109c36109bd61172a565b826117eb565b610a02576040517f08c379a00000000000000000000000000000000000000000000000000000000081526004016109f990613083565b60405180910390fd5b610a0d838383611880565b505050565b610a1a611b79565b600047905060008111610a62576040517f08c379a0000000000000000000000000000000000000000000000000000000008152600401610a59906130ef565b60405180910390fd5b3373ffffffffffffffffffffffffffffffffffffffff166108fc829081150290604051600060405180830381858888f19350505050158015610aa8573d6000803e3d6000fd5b5050565b6000600b6000838152602001908152602001600020600001549050919050565b6000600b6000838152602001908152602001600020604051806040016040529081600082015481526020016001820160009054906101000a900473ffffffffffffffffffffffffffffffffffffffff1673ffffffffffffffffffffffffffffffffffffffff1673ffffffffffffffffffffffffffffffffffffffff168152505090506000816000015111610b95576040517f08c379a0000000000000000000000000000000000000000000000000000000008152600401610b8c90613181565b60405180910390fd5b3373ffffffffffffffffffffffffffffffffffffffff16816020015173ffffffffffffffffffffffffffffffffffffffff1614610c07576040517f08c379a0000000000000000000000000000000000000000000000000000000008152600401610bfe906131ed565b60405180910390fd5b610c1082611bf7565b5050565b600a6020528060005260406000206000915054906101000a900473ffffffffffffffffffffffffffffffffffffffff1681565b610c62838383604051806020016040528060008152506111ff565b505050565b600033905090565b6000600b6000838152602001908152602001600020604051806040016040529081600082015481526020016001820160009054906101000a900473ffffffffffffffffffffffffffffffffffffffff1673ffffffffffffffffffffffffffffffffffffffff1673ffffffffffffffffffffffffffffffffffffffff168152505090506000816000015111610d38576040517f08c379a0000000000000000000000000000000000000000000000000000000008152600401610d2f90613181565b60405180910390fd5b80600001513414610d7e576040517f08c379a0000000000000000000000000000000000000000000000000000000008152600401610d7590613259565b60405180910390fd5b3373ffffffffffffffffffffffffffffffffffffffff16816020015173ffffffffffffffffffffffffffffffffffffffff1603610df0576040517f08c379a0000000000000000000000000000000000000000000000000000000008152600401610de7906132eb565b60405180910390fd5b610dff81602001513384611880565b610e0882611bf7565b806020015173ffffffffffffffffffffffffffffffffffffffff166108fc610e516064610e43605f8660000151611c6c90919063ffffffff16565b611c8290919063ffffffff16565b9081150290604051600060405180830381858888f19350505050158015610e7c573d6000803e3d6000fd5b507f705332a8918666802fc1504f63ff1f002a5f6cedd30d59ad7ae0b5281aeb8dca828260200151336000604051610eb79493929190613376565b60405180910390a15050565b600080610ecf83611c98565b9050600073ffffffffffffffffffffffffffffffffffffffff168173ffffffffffffffffffffffffffffffffffffffff1603610f40576040517f08c379a0000000000000000000000000000000000000000000000000000000008152600401610f379061341a565b60405180910390fd5b80915050919050565b6000600b600083815260200190815260200160002060010160009054906101000a900473ffffffffffffffffffffffffffffffffffffffff169050919050565b60008073ffffffffffffffffffffffffffffffffffffffff168273ffffffffffffffffffffffffffffffffffffffff1603610ff9576040517f08c379a0000000000000000000000000000000000000000000000000000000008152600401610ff0906134ac565b60405180910390fd5b600360008373ffffffffffffffffffffffffffffffffffffffff1673ffffffffffffffffffffffffffffffffffffffff168152602001908152602001600020549050919050565b611048611b79565b6110526000611cd5565b565b6000600760009054906101000a900473ffffffffffffffffffffffffffffffffffffffff16905090565b600081116110c1576040517f08c379a00000000000000000000000000000000000000000000000000000000081526004016110b89061353e565b60405180910390fd5b60405180604001604052808281526020013373ffffffffffffffffffffffffffffffffffffffff16815250600b60008481526020019081526020016000206000820151816000015560208201518160010160006101000a81548173ffffffffffffffffffffffffffffffffffffffff021916908373ffffffffffffffffffffffffffffffffffffffff1602179055509050505050565b60606001805461116690612ebc565b80601f016020809104026020016040519081016040528092919081815260200182805461119290612ebc565b80156111df5780601f106111b4576101008083540402835291602001916111df565b820191906000526020600020905b8154815290600101906020018083116111c257829003601f168201915b5050505050905090565b6111fb6111f461172a565b8383611d9b565b5050565b61121061120a61172a565b836117eb565b61124f576040517f08c379a000000000000000000000000000000000000000000000000000000000815260040161124690613083565b60405180910390fd5b61125b84848484611f07565b50505050565b606061126c826116df565b600060066000848152602001908152602001600020805461128c90612ebc565b80601f01602080910402602001604051908101604052809291908181526020018280546112b890612ebc565b80156113055780601f106112da57610100808354040283529160200191611305565b820191906000526020600020905b8154815290600101906020018083116112e857829003601f168201915b505050505090506000611316611f63565b9050600081510361132b57819250505061136e565b60008251111561136057808260405160200161134892919061359a565b6040516020818303038152906040529250505061136e565b61136984611f7a565b925050505b919050565b61137d6008611fe2565b60006113896008611ff8565b90506113953382612006565b6113e38184848080601f016020809104026020016040519081016040528093929190818152602001838380828437600081840152601f19601f82011690508083019250505050505050612024565b6114226040518060400160405280600a81526020017f746f6b656e2069643a200000000000000000000000000000000000000000000081525082612091565b60016009600082825461143591906135ed565b9250508190555061147d6040518060400160405280601781526020017f4e46542070726573656e74207269676874206e6f773a20000000000000000000815250600954612091565b33600a600083815260200190815260200160002060006101000a81548173ffffffffffffffffffffffffffffffffffffffff021916908373ffffffffffffffffffffffffffffffffffffffff1602179055507f705332a8918666802fc1504f63ff1f002a5f6cedd30d59ad7ae0b5281aeb8dca816000338686600060405161150a9695949392919061364e565b60405180910390a1505050565b6000600560008473ffffffffffffffffffffffffffffffffffffffff1673ffffffffffffffffffffffffffffffffffffffff16815260200190815260200160002060008373ffffffffffffffffffffffffffffffffffffffff1673ffffffffffffffffffffffffffffffffffffffff16815260200190815260200160002060009054906101000a900460ff16905092915050565b6000600a600083815260200190815260200160002060009054906101000a900473ffffffffffffffffffffffffffffffffffffffff169050919050565b6000600954905090565b6115fa611b79565b600073ffffffffffffffffffffffffffffffffffffffff168173ffffffffffffffffffffffffffffffffffffffff1603611669576040517f08c379a00000000000000000000000000000000000000000000000000000000081526004016116609061371c565b60405180910390fd5b61167281611cd5565b50565b60007f01ffc9a7000000000000000000000000000000000000000000000000000000007bffffffffffffffffffffffffffffffffffffffffffffffffffffffff1916827bffffffffffffffffffffffffffffffffffffffffffffffffffffffff1916149050919050565b6116e88161212d565b611727576040517f08c379a000000000000000000000000000000000000000000000000000000000815260040161171e9061341a565b60405180910390fd5b50565b600033905090565b816004600083815260200190815260200160002060006101000a81548173ffffffffffffffffffffffffffffffffffffffff021916908373ffffffffffffffffffffffffffffffffffffffff160217905550808273ffffffffffffffffffffffffffffffffffffffff166117a583610ec3565b73ffffffffffffffffffffffffffffffffffffffff167f8c5be1e5ebec7d5bd14f71427d1e84f3dd0314c0f7b2291e5b200ac8c7c3b92560405160405180910390a45050565b6000806117f783610ec3565b90508073ffffffffffffffffffffffffffffffffffffffff168473ffffffffffffffffffffffffffffffffffffffff16148061183957506118388185611517565b5b8061187757508373ffffffffffffffffffffffffffffffffffffffff1661185f8461084f565b73ffffffffffffffffffffffffffffffffffffffff16145b91505092915050565b8273ffffffffffffffffffffffffffffffffffffffff166118a082610ec3565b73ffffffffffffffffffffffffffffffffffffffff16146118f6576040517f08c379a00000000000000000000000000000000000000000000000000000000081526004016118ed906137ae565b60405180910390fd5b600073ffffffffffffffffffffffffffffffffffffffff168273ffffffffffffffffffffffffffffffffffffffff1603611965576040517f08c379a000000000000000000000000000000000000000000000000000000000815260040161195c90613840565b60405180910390fd5b611972838383600161216e565b8273ffffffffffffffffffffffffffffffffffffffff1661199282610ec3565b73ffffffffffffffffffffffffffffffffffffffff16146119e8576040517f08c379a00000000000000000000000000000000000000000000000000000000081526004016119df906137ae565b60405180910390fd5b6004600082815260200190815260200160002060006101000a81549073ffffffffffffffffffffffffffffffffffffffff02191690556001600360008573ffffffffffffffffffffffffffffffffffffffff1673ffffffffffffffffffffffffffffffffffffffff168152602001908152602001600020600082825403925050819055506001600360008473ffffffffffffffffffffffffffffffffffffffff1673ffffffffffffffffffffffffffffffffffffffff16815260200190815260200160002060008282540192505081905550816002600083815260200190815260200160002060006101000a81548173ffffffffffffffffffffffffffffffffffffffff021916908373ffffffffffffffffffffffffffffffffffffffff160217905550808273ffffffffffffffffffffffffffffffffffffffff168473ffffffffffffffffffffffffffffffffffffffff167fddf252ad1be2c89b69c2b068fc378daa952ba7f163c4a11628f55a4df523b3ef60405160405180910390a4611b748383836001612174565b505050565b611b8161172a565b73ffffffffffffffffffffffffffffffffffffffff16611b9f611054565b73ffffffffffffffffffffffffffffffffffffffff1614611bf5576040517f08c379a0000000000000000000000000000000000000000000000000000000008152600401611bec906138ac565b60405180910390fd5b565b6000600b6000838152602001908152602001600020600001819055506000600b600083815260200190815260200160002060010160006101000a81548173ffffffffffffffffffffffffffffffffffffffff021916908373ffffffffffffffffffffffffffffffffffffffff16021790555050565b60008183611c7a91906138cc565b905092915050565b60008183611c90919061393d565b905092915050565b60006002600083815260200190815260200160002060009054906101000a900473ffffffffffffffffffffffffffffffffffffffff169050919050565b6000600760009054906101000a900473ffffffffffffffffffffffffffffffffffffffff16905081600760006101000a81548173ffffffffffffffffffffffffffffffffffffffff021916908373ffffffffffffffffffffffffffffffffffffffff1602179055508173ffffffffffffffffffffffffffffffffffffffff168173ffffffffffffffffffffffffffffffffffffffff167f8be0079c531659141344cd1fd0a4f28419497f9722a3daafe3b4186f6b6457e060405160405180910390a35050565b8173ffffffffffffffffffffffffffffffffffffffff168373ffffffffffffffffffffffffffffffffffffffff1603611e09576040517f08c379a0000000000000000000000000000000000000000000000000000000008152600401611e00906139ba565b60405180910390fd5b80600560008573ffffffffffffffffffffffffffffffffffffffff1673ffffffffffffffffffffffffffffffffffffffff16815260200190815260200160002060008473ffffffffffffffffffffffffffffffffffffffff1673ffffffffffffffffffffffffffffffffffffffff16815260200190815260200160002060006101000a81548160ff0219169083151502179055508173ffffffffffffffffffffffffffffffffffffffff168373ffffffffffffffffffffffffffffffffffffffff167f17307eab39ab6107e8899845ad3d59bd9653f200f220920489ca2b5937696c3183604051611efa919061289a565b60405180910390a3505050565b611f12848484611880565b611f1e8484848461217a565b611f5d576040517f08c379a0000000000000000000000000000000000000000000000000000000008152600401611f5490613a4c565b60405180910390fd5b50505050565b606060405180602001604052806000815250905090565b6060611f85826116df565b6000611f8f611f63565b90506000815111611faf5760405180602001604052806000815250611fda565b80611fb984612301565b604051602001611fca92919061359a565b6040516020818303038152906040525b915050919050565b6001816000016000828254019250508190555050565b600081600001549050919050565b6120208282604051806020016040528060008152506123cf565b5050565b61202d8261212d565b61206c576040517f08c379a000000000000000000000000000000000000000000000000000000000815260040161206390613ade565b60405180910390fd5b8060066000848152602001908152602001600020908161208c9190613ca0565b505050565b61212982826040516024016120a7929190613d72565b6040516020818303038152906040527fb60e72cc000000000000000000000000000000000000000000000000000000007bffffffffffffffffffffffffffffffffffffffffffffffffffffffff19166020820180517bffffffffffffffffffffffffffffffffffffffffffffffffffffffff838183161783525050505061242a565b5050565b60008073ffffffffffffffffffffffffffffffffffffffff1661214f83611c98565b73ffffffffffffffffffffffffffffffffffffffff1614159050919050565b50505050565b50505050565b600061219b8473ffffffffffffffffffffffffffffffffffffffff16612453565b156122f4578373ffffffffffffffffffffffffffffffffffffffff1663150b7a026121c461172a565b8786866040518563ffffffff1660e01b81526004016121e69493929190613df7565b6020604051808303816000875af192505050801561222257506040513d601f19601f8201168201806040525081019061221f9190613e58565b60015b6122a4573d8060008114612252576040519150601f19603f3d011682016040523d82523d6000602084013e612257565b606091505b50600081510361229c576040517f08c379a000000000000000000000000000000000000000000000000000000000815260040161229390613a4c565b60405180910390fd5b805181602001fd5b63150b7a0260e01b7bffffffffffffffffffffffffffffffffffffffffffffffffffffffff1916817bffffffffffffffffffffffffffffffffffffffffffffffffffffffff1916149150506122f9565b600190505b949350505050565b60606000600161231084612476565b01905060008167ffffffffffffffff81111561232f5761232e612bf2565b5b6040519080825280601f01601f1916602001820160405280156123615781602001600182028036833780820191505090505b509050600082602001820190505b6001156123c4578080600190039150507f3031323334353637383961626364656600000000000000000000000000000000600a86061a8153600a85816123b8576123b761390e565b5b0494506000850361236f575b819350505050919050565b6123d983836125c9565b6123e6600084848461217a565b612425576040517f08c379a000000000000000000000000000000000000000000000000000000000815260040161241c90613a4c565b60405180910390fd5b505050565b60008151905060006a636f6e736f6c652e6c6f679050602083016000808483855afa5050505050565b6000808273ffffffffffffffffffffffffffffffffffffffff163b119050919050565b600080600090507a184f03e93ff9f4daa797ed6e38ed64bf6a1f01000000000000000083106124d4577a184f03e93ff9f4daa797ed6e38ed64bf6a1f01000000000000000083816124ca576124c961390e565b5b0492506040810190505b6d04ee2d6d415b85acef81000000008310612511576d04ee2d6d415b85acef810000000083816125075761250661390e565b5b0492506020810190505b662386f26fc10000831061254057662386f26fc1000083816125365761253561390e565b5b0492506010810190505b6305f5e1008310612569576305f5e100838161255f5761255e61390e565b5b0492506008810190505b612710831061258e5761271083816125845761258361390e565b5b0492506004810190505b606483106125b157606483816125a7576125a661390e565b5b0492506002810190505b600a83106125c0576001810190505b80915050919050565b600073ffffffffffffffffffffffffffffffffffffffff168273ffffffffffffffffffffffffffffffffffffffff1603612638576040517f08c379a000000000000000000000000000000000000000000000000000000000815260040161262f90613ed1565b60405180910390fd5b6126418161212d565b15612681576040517f08c379a000000000000000000000000000000000000000000000000000000000815260040161267890613f3d565b60405180910390fd5b61268f60008383600161216e565b6126988161212d565b156126d8576040517f08c379a00000000000000000000000000000000000000000000000000000000081526004016126cf90613f3d565b60405180910390fd5b6001600360008473ffffffffffffffffffffffffffffffffffffffff1673ffffffffffffffffffffffffffffffffffffffff16815260200190815260200160002060008282540192505081905550816002600083815260200190815260200160002060006101000a81548173ffffffffffffffffffffffffffffffffffffffff021916908373ffffffffffffffffffffffffffffffffffffffff160217905550808273ffffffffffffffffffffffffffffffffffffffff16600073ffffffffffffffffffffffffffffffffffffffff167fddf252ad1be2c89b69c2b068fc378daa952ba7f163c4a11628f55a4df523b3ef60405160405180910390a46127e2600083836001612174565b5050565b6000604051905090565b600080fd5b600080fd5b60007fffffffff0000000000000000000000000000000000000000000000000000000082169050919050565b61282f816127fa565b811461283a57600080fd5b50565b60008135905061284c81612826565b92915050565b600060208284031215612868576128676127f0565b5b60006128768482850161283d565b91505092915050565b60008115159050919050565b6128948161287f565b82525050565b60006020820190506128af600083018461288b565b92915050565b600081519050919050565b600082825260208201905092915050565b60005b838110156128ef5780820151818401526020810190506128d4565b60008484015250505050565b6000601f19601f8301169050919050565b6000612917826128b5565b61292181856128c0565b93506129318185602086016128d1565b61293a816128fb565b840191505092915050565b6000602082019050818103600083015261295f818461290c565b905092915050565b6000819050919050565b61297a81612967565b811461298557600080fd5b50565b60008135905061299781612971565b92915050565b6000602082840312156129b3576129b26127f0565b5b60006129c184828501612988565b91505092915050565b600073ffffffffffffffffffffffffffffffffffffffff82169050919050565b60006129f5826129ca565b9050919050565b612a05816129ea565b82525050565b6000602082019050612a2060008301846129fc565b92915050565b612a2f816129ea565b8114612a3a57600080fd5b50565b600081359050612a4c81612a26565b92915050565b60008060408385031215612a6957612a686127f0565b5b6000612a7785828601612a3d565b9250506020612a8885828601612988565b9150509250929050565b612a9b81612967565b82525050565b6000602082019050612ab66000830184612a92565b92915050565b600080600060608486031215612ad557612ad46127f0565b5b6000612ae386828701612a3d565b9350506020612af486828701612a3d565b9250506040612b0586828701612988565b9150509250925092565b600060208284031215612b2557612b246127f0565b5b6000612b3384828501612a3d565b91505092915050565b60008060408385031215612b5357612b526127f0565b5b6000612b6185828601612988565b9250506020612b7285828601612988565b9150509250929050565b612b858161287f565b8114612b9057600080fd5b50565b600081359050612ba281612b7c565b92915050565b60008060408385031215612bbf57612bbe6127f0565b5b6000612bcd85828601612a3d565b9250506020612bde85828601612b93565b9150509250929050565b600080fd5b600080fd5b7f4e487b7100000000000000000000000000000000000000000000000000000000600052604160045260246000fd5b612c2a826128fb565b810181811067ffffffffffffffff82111715612c4957612c48612bf2565b5b80604052505050565b6000612c5c6127e6565b9050612c688282612c21565b919050565b600067ffffffffffffffff821115612c8857612c87612bf2565b5b612c91826128fb565b9050602081019050919050565b82818337600083830152505050565b6000612cc0612cbb84612c6d565b612c52565b905082815260208101848484011115612cdc57612cdb612bed565b5b612ce7848285612c9e565b509392505050565b600082601f830112612d0457612d03612be8565b5b8135612d14848260208601612cad565b91505092915050565b60008060008060808587031215612d3757612d366127f0565b5b6000612d4587828801612a3d565b9450506020612d5687828801612a3d565b9350506040612d6787828801612988565b925050606085013567ffffffffffffffff811115612d8857612d876127f5565b5b612d9487828801612cef565b91505092959194509250565b600080fd5b600080fd5b60008083601f840112612dc057612dbf612be8565b5b8235905067ffffffffffffffff811115612ddd57612ddc612da0565b5b602083019150836001820283011115612df957612df8612da5565b5b9250929050565b60008060208385031215612e1757612e166127f0565b5b600083013567ffffffffffffffff811115612e3557612e346127f5565b5b612e4185828601612daa565b92509250509250929050565b60008060408385031215612e6457612e636127f0565b5b6000612e7285828601612a3d565b9250506020612e8385828601612a3d565b9150509250929050565b7f4e487b7100000000000000000000000000000000000000000000000000000000600052602260045260246000fd5b60006002820490506001821680612ed457607f821691505b602082108103612ee757612ee6612e8d565b5b50919050565b7f4552433732313a20617070726f76616c20746f2063757272656e74206f776e6560008201527f7200000000000000000000000000000000000000000000000000000000000000602082015250565b6000612f496021836128c0565b9150612f5482612eed565b604082019050919050565b60006020820190508181036000830152612f7881612f3c565b9050919050565b7f4552433732313a20617070726f76652063616c6c6572206973206e6f7420746f60008201527f6b656e206f776e6572206f7220617070726f76656420666f7220616c6c000000602082015250565b6000612fdb603d836128c0565b9150612fe682612f7f565b604082019050919050565b6000602082019050818103600083015261300a81612fce565b9050919050565b7f4552433732313a2063616c6c6572206973206e6f7420746f6b656e206f776e6560008201527f72206f7220617070726f76656400000000000000000000000000000000000000602082015250565b600061306d602d836128c0565b915061307882613011565b604082019050919050565b6000602082019050818103600083015261309c81613060565b9050919050565b7f4e46544d61726b65743a2062616c616e6365206973207a65726f000000000000600082015250565b60006130d9601a836128c0565b91506130e4826130a3565b602082019050919050565b60006020820190508181036000830152613108816130cc565b9050919050565b7f4e46544d61726b65743a206e6674206e6f74206c697374656420666f7220736160008201527f6c65000000000000000000000000000000000000000000000000000000000000602082015250565b600061316b6022836128c0565b91506131768261310f565b604082019050919050565b6000602082019050818103600083015261319a8161315e565b9050919050565b7f4e46544d61726b65743a20796f75277265206e6f74207468652073656c6c6572600082015250565b60006131d76020836128c0565b91506131e2826131a1565b602082019050919050565b60006020820190508181036000830152613206816131ca565b9050919050565b7f4e46544d61726b65743a20696e636f7272656374207072696365000000000000600082015250565b6000613243601a836128c0565b915061324e8261320d565b602082019050919050565b6000602082019050818103600083015261327281613236565b9050919050565b7f4e46544d61726b65743a204f776e65722063616e6e6f7420627579206869732060008201527f6f776e204e465400000000000000000000000000000000000000000000000000602082015250565b60006132d56027836128c0565b91506132e082613279565b604082019050919050565b60006020820190508181036000830152613304816132c8565b9050919050565b50565b600061331b6000836128c0565b91506133268261330b565b600082019050919050565b6000819050919050565b6000819050919050565b600061336061335b61335684613331565b61333b565b612967565b9050919050565b61337081613345565b82525050565b600060a08201905061338b6000830187612a92565b61339860208301866129fc565b6133a560408301856129fc565b81810360608301526133b68161330e565b90506133c56080830184613367565b95945050505050565b7f4552433732313a20696e76616c696420746f6b656e2049440000000000000000600082015250565b60006134046018836128c0565b915061340f826133ce565b602082019050919050565b60006020820190508181036000830152613433816133f7565b9050919050565b7f4552433732313a2061646472657373207a65726f206973206e6f74206120766160008201527f6c6964206f776e65720000000000000000000000000000000000000000000000602082015250565b60006134966029836128c0565b91506134a18261343a565b604082019050919050565b600060208201905081810360008301526134c581613489565b9050919050565b7f4e46544d61726b65743a207072696365206d757374206265206772656174657260008201527f207468616e203000000000000000000000000000000000000000000000000000602082015250565b60006135286027836128c0565b9150613533826134cc565b604082019050919050565b600060208201905081810360008301526135578161351b565b9050919050565b600081905092915050565b6000613574826128b5565b61357e818561355e565b935061358e8185602086016128d1565b80840191505092915050565b60006135a68285613569565b91506135b28284613569565b91508190509392505050565b7f4e487b7100000000000000000000000000000000000000000000000000000000600052601160045260246000fd5b60006135f882612967565b915061360383612967565b925082820190508082111561361b5761361a6135be565b5b92915050565b600061362d83856128c0565b935061363a838584612c9e565b613643836128fb565b840190509392505050565b600060a0820190506136636000830189612a92565b61367060208301886129fc565b61367d60408301876129fc565b8181036060830152613690818587613621565b905061369f6080830184613367565b979650505050505050565b7f4f776e61626c653a206e6577206f776e657220697320746865207a65726f206160008201527f6464726573730000000000000000000000000000000000000000000000000000602082015250565b60006137066026836128c0565b9150613711826136aa565b604082019050919050565b60006020820190508181036000830152613735816136f9565b9050919050565b7f4552433732313a207472616e736665722066726f6d20696e636f72726563742060008201527f6f776e6572000000000000000000000000000000000000000000000000000000602082015250565b60006137986025836128c0565b91506137a38261373c565b604082019050919050565b600060208201905081810360008301526137c78161378b565b9050919050565b7f4552433732313a207472616e7366657220746f20746865207a65726f2061646460008201527f7265737300000000000000000000000000000000000000000000000000000000602082015250565b600061382a6024836128c0565b9150613835826137ce565b604082019050919050565b600060208201905081810360008301526138598161381d565b9050919050565b7f4f776e61626c653a2063616c6c6572206973206e6f7420746865206f776e6572600082015250565b60006138966020836128c0565b91506138a182613860565b602082019050919050565b600060208201905081810360008301526138c581613889565b9050919050565b60006138d782612967565b91506138e283612967565b92508282026138f081612967565b91508282048414831517613907576139066135be565b5b5092915050565b7f4e487b7100000000000000000000000000000000000000000000000000000000600052601260045260246000fd5b600061394882612967565b915061395383612967565b9250826139635761396261390e565b5b828204905092915050565b7f4552433732313a20617070726f766520746f2063616c6c657200000000000000600082015250565b60006139a46019836128c0565b91506139af8261396e565b602082019050919050565b600060208201905081810360008301526139d381613997565b9050919050565b7f4552433732313a207472616e7366657220746f206e6f6e20455243373231526560008201527f63656976657220696d706c656d656e7465720000000000000000000000000000602082015250565b6000613a366032836128c0565b9150613a41826139da565b604082019050919050565b60006020820190508181036000830152613a6581613a29565b9050919050565b7f45524337323155524953746f726167653a2055524920736574206f66206e6f6e60008201527f6578697374656e7420746f6b656e000000000000000000000000000000000000602082015250565b6000613ac8602e836128c0565b9150613ad382613a6c565b604082019050919050565b60006020820190508181036000830152613af781613abb565b9050919050565b60008190508160005260206000209050919050565b60006020601f8301049050919050565b600082821b905092915050565b600060088302613b607fffffffffffffffffffffffffffffffffffffffffffffffffffffffffffffffff82613b23565b613b6a8683613b23565b95508019841693508086168417925050509392505050565b6000613b9d613b98613b9384612967565b61333b565b612967565b9050919050565b6000819050919050565b613bb783613b82565b613bcb613bc382613ba4565b848454613b30565b825550505050565b600090565b613be0613bd3565b613beb818484613bae565b505050565b5b81811015613c0f57613c04600082613bd8565b600181019050613bf1565b5050565b601f821115613c5457613c2581613afe565b613c2e84613b13565b81016020851015613c3d578190505b613c51613c4985613b13565b830182613bf0565b50505b505050565b600082821c905092915050565b6000613c7760001984600802613c59565b1980831691505092915050565b6000613c908383613c66565b9150826002028217905092915050565b613ca9826128b5565b67ffffffffffffffff811115613cc257613cc1612bf2565b5b613ccc8254612ebc565b613cd7828285613c13565b600060209050601f831160018114613d0a5760008415613cf8578287015190505b613d028582613c84565b865550613d6a565b601f198416613d1886613afe565b60005b82811015613d4057848901518255600182019150602085019450602081019050613d1b565b86831015613d5d5784890151613d59601f891682613c66565b8355505b6001600288020188555050505b505050505050565b60006040820190508181036000830152613d8c818561290c565b9050613d9b6020830184612a92565b9392505050565b600081519050919050565b600082825260208201905092915050565b6000613dc982613da2565b613dd38185613dad565b9350613de38185602086016128d1565b613dec816128fb565b840191505092915050565b6000608082019050613e0c60008301876129fc565b613e1960208301866129fc565b613e266040830185612a92565b8181036060830152613e388184613dbe565b905095945050505050565b600081519050613e5281612826565b92915050565b600060208284031215613e6e57613e6d6127f0565b5b6000613e7c84828501613e43565b91505092915050565b7f4552433732313a206d696e7420746f20746865207a65726f2061646472657373600082015250565b6000613ebb6020836128c0565b9150613ec682613e85565b602082019050919050565b60006020820190508181036000830152613eea81613eae565b9050919050565b7f4552433732313a20746f6b656e20616c7265616479206d696e74656400000000600082015250565b6000613f27601c836128c0565b9150613f3282613ef1565b602082019050919050565b60006020820190508181036000830152613f5681613f1a565b905091905056fea264697066735822122091fd3c8744885486f5d1605f333f32221219dbd24a4bfff90e8ad499784eb7c164736f6c63430008120033",
  "linkReferences": {},
  "deployedLinkReferences": {}
}